:03000000020103F7
:0C010300787FE4F6D8FD75810C02014AFB
:07000300010900020A0000E0
:1002CB00E4FDFCC3ED9FEC9E5015E4FBFA0BBB0069
:0F02DB00010AEB64704A70F50DBD00010C80E460
:0102EA0022F1
:07031A0000D2A100C2A122E4
:10020200E4FFFEC2A1D2A200C2A412031AD2A21219
:10021200031AC2A212031AD2A2FDEDC3940874807B
:1002220094805012EF25E0FF12031A30A205430713
:100232000180000D80E4E4FDEDC394087480948095
:100242005012EEC313FE30A2054306808000120353
:100252001A0D80E400D2A2D2A1D2A4EFB5060122E7
:020262007F001B
:010264002277
:10030100758901758CFC758A18D2A9D2AFD28C225D
:10029C00209214D3E50894007480948040091508CA
:1002AC007F2C7E011202CB209314C3E508940974B1
:0F02BC00809480500905087F2C7E011202CB220E
:0D000E001202028F0C12001BE50C2407FFEC
:10001B00EFFD7C00C3943B748094805004750809F9
:10002B0022D3ED9441EC64809480400EED9451EC1E
:10003B0064809480500475080822D3ED9457EC64C7
:10004B00809480400EED9467EC648094805004752E
:10005B00080722D3ED946DEC64809480400EED94F0
:10006B007DEC64809480500475080622D3ED948354
:10007B00EC64809480400EED9493EC6480948050FB
:10008B000475080522D3ED9499EC64809480400E9E
:10009B00ED94A9EC64809480500475080422D3ED90
:1000AB0094AFEC64809480400EED94BFEC6480942C
:1000BB0080500475080322D3ED94C5EC64809480C2
:1000CB00400EED94D5EC64809480500475080222A8
:1000DB00D3ED94DBEC64809480400EED94EBEC64F8
:1000EB00809480500475080122D3ED94F1EC648068
:0800FB0094804003E4F50822A3
:09031100209503C29622D2962227
:10018F00120301C29012000E209119B29020900319
:10019F0012000E7F0A7E001202CB3091FD7F0A7E85
:1001AF00001202CB30900512029C801DAE0AAF0BDD
:1001BF00E4FCFD7B607AEAF9F8D31202EB400A12F5
:1001CF00000E7FC87E001202CB30A305E4F50AF5BE
:1001DF000BAE0AAF0BE4FCFD7B607AEAF9F8C312B1
:1001EF0002EB5009750AEA750B60E4F5081203116A
:0301FF0002019763
:03000B0002026589
:10026500C0E0C0D0758CFC758A18209008050BE598
:100275000B7002050A0509E509640A7008F509E528
:10028500086002C294E509B50808E508640960023A
:07029500D294D0D0D0E0327A
:10010F0002018FE493A3F8E493A34003F68001F276
:10011F0008DFF48029E493A3F85407240CC8C333F1
:10012F00C4540F4420C8834004F456800146F6DFC0
:10013F00E4800B0102040810204080900003E47E4D
:10014F00019360BCA3FF543F30E509541FFEE493B5
:10015F00A360010ECF54C025E060A840B8E493A37C
:10016F00FAE493A3F8E493A3C8C582C8CAC583CAA7
:10017F00F0A3C8C582C8CAC583CADFE9DEE780BE5F
:01000A0000F5
:1002EB00EB9FF5F0EA9E42F0E99D42F0EC6480C88A
:0602FB0064809845F0222A
:00000001FF
